{
  "_format": "hh-sol-artifact-1",
  "contractName": "Voting",
  "sourceName": "contracts/Voting.sol",
  "abi": [
    {
      "anonymous": false,
      "inputs": [
        {
          "indexed": true,
          "internalType": "uint256",
          "name": "id",
          "type": "uint256"
        }
      ],
      "name": "BallotClosed",
      "type": "event"
    },
    {
      "anonymous": false,
      "inputs": [
        {
          "indexed": true,
          "internalType": "uint256",
          "name": "id",
          "type": "uint256"
        },
        {
          "indexed": false,
          "internalType": "string",
          "name": "title",
          "type": "string"
        },
        {
          "indexed": false,
          "internalType": "uint256",
          "name": "maxVoters",
          "type": "uint256"
        }
      ],
      "name": "BallotOpened",
      "type": "event"
    },
    {
      "anonymous": false,
      "inputs": [
        {
          "indexed": true,
          "internalType": "uint256",
          "name": "id",
          "type": "uint256"
        }
      ],
      "name": "BallotReset",
      "type": "event"
    },
    {
      "anonymous": false,
      "inputs": [
        {
          "indexed": true,
          "internalType": "uint256",
          "name": "id",
          "type": "uint256"
        },
        {
          "indexed": false,
          "internalType": "address",
          "name": "elector",
          "type": "address"
        }
      ],
      "name": "Registered",
      "type": "event"
    },
    {
      "anonymous": false,
      "inputs": [
        {
          "indexed": true,
          "internalType": "uint256",
          "name": "id",
          "type": "uint256"
        },
        {
          "indexed": false,
          "internalType": "address",
          "name": "elector",
          "type": "address"
        },
        {
          "indexed": false,
          "internalType": "uint256",
          "name": "option",
          "type": "uint256"
        }
      ],
      "name": "Voted",
      "type": "event"
    },
    {
      "inputs": [
        {
          "internalType": "uint256",
          "name": "id",
          "type": "uint256"
        }
      ],
      "name": "ballotState",
      "outputs": [
        {
          "internalType": "string",
          "name": "title",
          "type": "string"
        },
        {
          "internalType": "bool",
          "name": "open",
          "type": "bool"
        },
        {
          "internalType": "uint256",
          "name": "max",
          "type": "uint256"
        },
        {
          "internalType": "uint256",
          "name": "reg",
          "type": "uint256"
        },
        {
          "internalType": "uint256",
          "name": "total",
          "type": "uint256"
        }
      ],
      "stateMutability": "view",
      "type": "function"
    },
    {
      "inputs": [
        {
          "internalType": "uint256",
          "name": "id",
          "type": "uint256"
        }
      ],
      "name": "closeBallot",
      "outputs": [],
      "stateMutability": "nonpayable",
      "type": "function"
    },
    {
      "inputs": [
        {
          "internalType": "uint256",
          "name": "id",
          "type": "uint256"
        }
      ],
      "name": "getOptions",
      "outputs": [
        {
          "internalType": "string[]",
          "name": "",
          "type": "string[]"
        }
      ],
      "stateMutability": "view",
      "type": "function"
    },
    {
      "inputs": [],
      "name": "nextBallotId",
      "outputs": [
        {
          "internalType": "uint256",
          "name": "",
          "type": "uint256"
        }
      ],
      "stateMutability": "view",
      "type": "function"
    },
    {
      "inputs": [
        {
          "internalType": "string",
          "name": "_title",
          "type": "string"
        },
        {
          "internalType": "string[]",
          "name": "_options",
          "type": "string[]"
        },
        {
          "internalType": "uint256",
          "name": "_maxVoters",
          "type": "uint256"
        }
      ],
      "name": "openBallot",
      "outputs": [],
      "stateMutability": "nonpayable",
      "type": "function"
    },
    {
      "inputs": [],
      "name": "owner",
      "outputs": [
        {
          "internalType": "address",
          "name": "",
          "type": "address"
        }
      ],
      "stateMutability": "view",
      "type": "function"
    },
    {
      "inputs": [
        {
          "internalType": "uint256",
          "name": "id",
          "type": "uint256"
        }
      ],
      "name": "register",
      "outputs": [],
      "stateMutability": "nonpayable",
      "type": "function"
    },
    {
      "inputs": [
        {
          "internalType": "uint256",
          "name": "id",
          "type": "uint256"
        }
      ],
      "name": "resetIfTie",
      "outputs": [],
      "stateMutability": "nonpayable",
      "type": "function"
    },
    {
      "inputs": [
        {
          "internalType": "uint256",
          "name": "id",
          "type": "uint256"
        },
        {
          "internalType": "address",
          "name": "who",
          "type": "address"
        }
      ],
      "name": "status",
      "outputs": [
        {
          "internalType": "bool",
          "name": "registered",
          "type": "bool"
        },
        {
          "internalType": "bool",
          "name": "voted",
          "type": "bool"
        }
      ],
      "stateMutability": "view",
      "type": "function"
    },
    {
      "inputs": [
        {
          "internalType": "uint256",
          "name": "id",
          "type": "uint256"
        },
        {
          "internalType": "uint256",
          "name": "option",
          "type": "uint256"
        }
      ],
      "name": "tally",
      "outputs": [
        {
          "internalType": "uint256",
          "name": "",
          "type": "uint256"
        }
      ],
      "stateMutability": "view",
      "type": "function"
    },
    {
      "inputs": [
        {
          "internalType": "uint256",
          "name": "id",
          "type": "uint256"
        },
        {
          "internalType": "uint256",
          "name": "option",
          "type": "uint256"
        }
      ],
      "name": "vote",
      "outputs": [],
      "stateMutability": "nonpayable",
      "type": "function"
    }
  ],
  "bytecode": "0x60a06040523373ffffffffffffffffffffffffffffffffffffffff1660809073ffffffffffffffffffffffffffffffffffffffff16815250348015604257600080fd5b50608051611e406100736000396000818161023d015281816104450152818161085d0152610b5b0152611e406000f3fe608060405234801561001057600080fd5b50600436106100a95760003560e01c806397c3f4e71161007157806397c3f4e714610168578063b384abef14610198578063d045f1e4146101b4578063db1698b2146101d0578063dc6bfbb514610201578063f207564e1461021f576100a9565b80630fb47524146100ae5780631269b8ba146100ca5780636db7769d146100e65780638915b3fb1461011a5780638da5cb5b1461014a575b600080fd5b6100c860048036038101906100c39190610f96565b61023b565b005b6100e460048036038101906100df919061107e565b610443565b005b61010060048036038101906100fb9190610f96565b610688565b6040516101119594939291906111cd565b60405180910390f35b610134600480360381019061012f9190610f96565b61076c565b6040516101419190611333565b60405180910390f35b61015261085b565b60405161015f9190611396565b60405180910390f35b610182600480360381019061017d91906113b1565b61087f565b60405161018f91906113f1565b60405180910390f35b6101b260048036038101906101ad91906113b1565b6108b1565b005b6101ce60048036038101906101c99190610f96565b610b59565b005b6101ea60048036038101906101e59190611438565b610c9d565b6040516101f8929190611478565b60405180910390f35b610209610d61565b60405161021691906113f1565b60405180910390f35b61023960048036038101906102349190610f96565b610d67565b005b7f000000000000000000000000000000000000000000000000000000000000000073ffffffffffffffffffffffffffffffffffffffff163373ffffffffffffffffffffffffffffffffffffffff16146102c9576040517f08c379a00000000000000000000000000000000000000000000000000000000081526004016102c0906114ed565b60405180910390fd5b60006001600083815260200190815260200160002090506000805b82600101805490508110156103345781836008016000838152602001908152602001600020541115610329578260080160008281526020019081526020016000205491505b8060010190506102e4565b506000805b836001018054905081101561038957828460080160008381526020019081526020016000205414801561036c5750600083115b1561037e578161037b9061153c565b91505b806001019050610339565b50600181116103cd576040517f08c379a00000000000000000000000000000000000000000000000000000000081526004016103c4906115d0565b60405180910390fd5b60005b8360010180549050811015610405576000846008016000838152602001908152602001600020819055508060010190506103d0565b5060008360050181905550837fa0a096bd1b8a597414e66939d5ab5a2d1f69f805e95a913b6ec4180ca7fc23fb60405160405180910390a250505050565b7f000000000000000000000000000000000000000000000000000000000000000073ffffffffffffffffffffffffffffffffffffffff163373ffffffffffffffffffffffffffffffffffffffff16146104d1576040517f08c379a00000000000000000000000000000000000000000000000000000000081526004016104c8906114ed565b60405180910390fd5b6002838390501015610518576040517f08c379a000000000000000000000000000000000000000000000000000000000815260040161050f9061163c565b60405180910390fd5b6000811161055b576040517f08c379a0000000000000000000000000000000000000000000000000000000008152600401610552906116a8565b60405180910390fd5b600080600081548092919061056f9061153c565b9190505590506000600160008381526020019081526020016000209050868682600001918261059f92919061190e565b5082816003018190555060018160020160006101000a81548160ff02191690831515021790555060005b8585905081101561064257816001018686838181106105eb576105ea6119de565b5b90506020028101906105fd9190611a1c565b9091806001815401808255809150506001900390600052602060002001600090919290919290919290919250918261063692919061190e565b508060010190506105c9565b50817f2b14bbc273d731531ab08625617e314ed04bc9c29547467bb401a432f005fcc788888660405161067793929190611abb565b60405180910390a250505050505050565b60606000806000806000600160008881526020019081526020016000209050806000018160020160009054906101000a900460ff168260030154836004015484600501548480546106d890611731565b80601f016020809104026020016040519081016040528092919081815260200182805461070490611731565b80156107515780601f1061072657610100808354040283529160200191610751565b820191906000526020600020905b81548152906001019060200180831161073457829003601f168201915b50505050509450955095509550955095505091939590929450565b606060016000838152602001908152602001600020600101805480602002602001604051908101604052809291908181526020016000905b828210156108505783829060005260206000200180546107c390611731565b80601f01602080910402602001604051908101604052809291908181526020018280546107ef90611731565b801561083c5780601f106108115761010080835404028352916020019161083c565b820191906000526020600020905b81548152906001019060200180831161081f57829003601f168201915b5050505050815260200190600101906107a4565b505050509050919050565b7f000000000000000000000000000000000000000000000000000000000000000081565b600060016000848152602001908152602001600020600801600083815260200190815260200160002054905092915050565b60006001600084815260200190815260200160002090508060020160009054906101000a900460ff16610919576040517f08c379a000000000000000000000000000000000000000000000000000000000815260040161091090611b39565b60405180910390fd5b8060060160003373ffffffffffffffffffffffffffffffffffffffff1673ffffffffffffffffffffffffffffffffffffffff16815260200190815260200160002060009054906101000a900460ff166109a7576040517f08c379a000000000000000000000000000000000000000000000000000000000815260040161099e90611ba5565b60405180910390fd5b806001018054905082106109f0576040517f08c379a00000000000000000000000000000000000000000000000000000000081526004016109e790611c11565b60405180910390fd5b8060070160003373ffffffffffffffffffffffffffffffffffffffff1673ffffffffffffffffffffffffffffffffffffffff16815260200190815260200160002060009054906101000a900460ff1615610a7f576040517f08c379a0000000000000000000000000000000000000000000000000000000008152600401610a7690611c7d565b60405180910390fd5b60018160070160003373ffffffffffffffffffffffffffffffffffffffff1673ffffffffffffffffffffffffffffffffffffffff16815260200190815260200160002060006101000a81548160ff02191690831515021790555080600801600083815260200190815260200160002060008154610afb9061153c565b919050819055508060050160008154610b139061153c565b91905081905550827f1abe610cf2bf87e57dcc1181fcf5ac0934e843d8344ab9eed6e86c799f62585e3384604051610b4c929190611c9d565b60405180910390a2505050565b7f000000000000000000000000000000000000000000000000000000000000000073ffffffffffffffffffffffffffffffffffffffff163373ffffffffffffffffffffffffffffffffffffffff1614610be7576040517f08c379a0000000000000000000000000000000000000000000000000000000008152600401610bde906114ed565b60405180910390fd5b60006001600083815260200190815260200160002090508060020160009054906101000a900460ff16610c4f576040517f08c379a0000000000000000000000000000000000000000000000000000000008152600401610c4690611d12565b60405180910390fd5b60008160020160006101000a81548160ff021916908315150217905550817fc23c99c8cb2423f58e6b41cb38b8a0ae54e8f244e1bd3c122e97ed36a96c512860405160405180910390a25050565b60008060006001600086815260200190815260200160002090508060060160008573ffffffffffffffffffffffffffffffffffffffff1673ffffffffffffffffffffffffffffffffffffffff16815260200190815260200160002060009054906101000a900460ff168160070160008673ffffffffffffffffffffffffffffffffffffffff1673ffffffffffffffffffffffffffffffffffffffff16815260200190815260200160002060009054906101000a900460ff1692509250509250929050565b60005481565b60006001600083815260200190815260200160002090508060020160009054906101000a900460ff16610dcf576040517f08c379a0000000000000000000000000000000000000000000000000000000008152600401610dc690611b39565b60405180910390fd5b8060060160003373ffffffffffffffffffffffffffffffffffffffff1673ffffffffffffffffffffffffffffffffffffffff16815260200190815260200160002060009054906101000a900460ff1615610e5e576040517f08c379a0000000000000000000000000000000000000000000000000000000008152600401610e5590611d7e565b60405180910390fd5b8060030154816004015410610ea8576040517f08c379a0000000000000000000000000000000000000000000000000000000008152600401610e9f90611dea565b60405180910390fd5b60018160060160003373ffffffffffffffffffffffffffffffffffffffff1673ffffffffffffffffffffffffffffffffffffffff16815260200190815260200160002060006101000a81548160ff0219169083151502179055508060040160008154610f139061153c565b91905081905550817f6cd8594df6446610564bf1ea1e804402ea0006dc7b541d3a430d1ea0a62cffd433604051610f4a9190611396565b60405180910390a25050565b600080fd5b600080fd5b6000819050919050565b610f7381610f60565b8114610f7e57600080fd5b50565b600081359050610f9081610f6a565b92915050565b600060208284031215610fac57610fab610f56565b5b6000610fba84828501610f81565b91505092915050565b600080fd5b600080fd5b600080fd5b60008083601f840112610fe857610fe7610fc3565b5b8235905067ffffffffffffffff81111561100557611004610fc8565b5b60208301915083600182028301111561102157611020610fcd565b5b9250929050565b60008083601f84011261103e5761103d610fc3565b5b8235905067ffffffffffffffff81111561105b5761105a610fc8565b5b60208301915083602082028301111561107757611076610fcd565b5b9250929050565b60008060008060006060868803121561109a57611099610f56565b5b600086013567ffffffffffffffff8111156110b8576110b7610f5b565b5b6110c488828901610fd2565b9550955050602086013567ffffffffffffffff8111156110e7576110e6610f5b565b5b6110f388828901611028565b9350935050604061110688828901610f81565b9150509295509295909350565b600081519050919050565b600082825260208201905092915050565b60005b8381101561114d578082015181840152602081019050611132565b60008484015250505050565b6000601f19601f8301169050919050565b600061117582611113565b61117f818561111e565b935061118f81856020860161112f565b61119881611159565b840191505092915050565b60008115159050919050565b6111b8816111a3565b82525050565b6111c781610f60565b82525050565b600060a08201905081810360008301526111e7818861116a565b90506111f660208301876111af565b61120360408301866111be565b61121060608301856111be565b61121d60808301846111be565b9695505050505050565b600081519050919050565b600082825260208201905092915050565b6000819050602082019050919050565b600082825260208201905092915050565b600061126f82611113565b6112798185611253565b935061128981856020860161112f565b61129281611159565b840191505092915050565b60006112a98383611264565b905092915050565b6000602082019050919050565b60006112c982611227565b6112d38185611232565b9350836020820285016112e585611243565b8060005b858110156113215784840389528151611302858261129d565b945061130d836112b1565b925060208a019950506001810190506112e9565b50829750879550505050505092915050565b6000602082019050818103600083015261134d81846112be565b905092915050565b600073ffffffffffffffffffffffffffffffffffffffff82169050919050565b600061138082611355565b9050919050565b61139081611375565b82525050565b60006020820190506113ab6000830184611387565b92915050565b600080604083850312156113c8576113c7610f56565b5b60006113d685828601610f81565b92505060206113e785828601610f81565b9150509250929050565b600060208201905061140660008301846111be565b92915050565b61141581611375565b811461142057600080fd5b50565b6000813590506114328161140c565b92915050565b6000806040838503121561144f5761144e610f56565b5b600061145d85828601610f81565b925050602061146e85828601611423565b9150509250929050565b600060408201905061148d60008301856111af565b61149a60208301846111af565b9392505050565b7f4f776e6572206f6e6c7900000000000000000000000000000000000000000000600082015250565b60006114d7600a8361111e565b91506114e2826114a1565b602082019050919050565b60006020820190508181036000830152611506816114ca565b9050919050565b7f4e487b7100000000000000000000000000000000000000000000000000000000600052601160045260246000fd5b600061154782610f60565b91507fffffffffffffffffffffffffffffffffffffffffffffffffffffffffffffffff82036115795761157861150d565b5b600182019050919050565b7f4e6f207469650000000000000000000000000000000000000000000000000000600082015250565b60006115ba60068361111e565b91506115c582611584565b602082019050919050565b600060208201905081810360008301526115e9816115ad565b9050919050565b7f4d696e2032206f7074696f6e7300000000000000000000000000000000000000600082015250565b6000611626600d8361111e565b9150611631826115f0565b602082019050919050565b6000602082019050818103600083015261165581611619565b9050919050565b7f4d6178566f74657273203e203000000000000000000000000000000000000000600082015250565b6000611692600d8361111e565b915061169d8261165c565b602082019050919050565b600060208201905081810360008301526116c181611685565b9050919050565b600082905092915050565b7f4e487b7100000000000000000000000000000000000000000000000000000000600052604160045260246000fd5b7f4e487b7100000000000000000000000000000000000000000000000000000000600052602260045260246000fd5b6000600282049050600182168061174957607f821691505b60208210810361175c5761175b611702565b5b50919050565b60008190508160005260206000209050919050565b60006020601f8301049050919050565b600082821b905092915050565b6000600883026117c47fffffffffffffffffffffffffffffffffffffffffffffffffffffffffffffffff82611787565b6117ce8683611787565b95508019841693508086168417925050509392505050565b6000819050919050565b600061180b61180661180184610f60565b6117e6565b610f60565b9050919050565b6000819050919050565b611825836117f0565b61183961183182611812565b848454611794565b825550505050565b600090565b61184e611841565b61185981848461181c565b505050565b5b8181101561187d57611872600082611846565b60018101905061185f565b5050565b601f8211156118c25761189381611762565b61189c84611777565b810160208510156118ab578190505b6118bf6118b785611777565b83018261185e565b50505b505050565b600082821c905092915050565b60006118e5600019846008026118c7565b1980831691505092915050565b60006118fe83836118d4565b9150826002028217905092915050565b61191883836116c8565b67ffffffffffffffff811115611931576119306116d3565b5b61193b8254611731565b611946828285611881565b6000601f8311600181146119755760008415611963578287013590505b61196d85826118f2565b8655506119d5565b601f19841661198386611762565b60005b828110156119ab57848901358255600182019150602085019450602081019050611986565b868310156119c857848901356119c4601f8916826118d4565b8355505b6001600288020188555050505b50505050505050565b7f4e487b7100000000000000000000000000000000000000000000000000000000600052603260045260246000fd5b600080fd5b600080fd5b600080fd5b60008083356001602003843603038112611a3957611a38611a0d565b5b80840192508235915067ffffffffffffffff821115611a5b57611a5a611a12565b5b602083019250600182023603831315611a7757611a76611a17565b5b509250929050565b82818337600083830152505050565b6000611a9a838561111e565b9350611aa7838584611a7f565b611ab083611159565b840190509392505050565b60006040820190508181036000830152611ad6818587611a8e565b9050611ae560208301846111be565b949350505050565b7f436c6f7365640000000000000000000000000000000000000000000000000000600082015250565b6000611b2360068361111e565b9150611b2e82611aed565b602082019050919050565b60006020820190508181036000830152611b5281611b16565b9050919050565b7f4e6f742072656769737465726564000000000000000000000000000000000000600082015250565b6000611b8f600e8361111e565b9150611b9a82611b59565b602082019050919050565b60006020820190508181036000830152611bbe81611b82565b9050919050565b7f426164206f7074696f6e00000000000000000000000000000000000000000000600082015250565b6000611bfb600a8361111e565b9150611c0682611bc5565b602082019050919050565b60006020820190508181036000830152611c2a81611bee565b9050919050565b7f416c726561647920766f74656400000000000000000000000000000000000000600082015250565b6000611c67600d8361111e565b9150611c7282611c31565b602082019050919050565b60006020820190508181036000830152611c9681611c5a565b9050919050565b6000604082019050611cb26000830185611387565b611cbf60208301846111be565b9392505050565b7f416c726561647920636c6f736564000000000000000000000000000000000000600082015250565b6000611cfc600e8361111e565b9150611d0782611cc6565b602082019050919050565b60006020820190508181036000830152611d2b81611cef565b9050919050565b7f416c726561647920726567697374657265640000000000000000000000000000600082015250565b6000611d6860128361111e565b9150611d7382611d32565b602082019050919050565b60006020820190508181036000830152611d9781611d5b565b9050919050565b7f4d617820766f7465727320726561636865640000000000000000000000000000600082015250565b6000611dd460128361111e565b9150611ddf82611d9e565b602082019050919050565b60006020820190508181036000830152611e0381611dc7565b905091905056fea26469706673582212208d4d7bcf9b59e61864a06c7b87fa177d5f735240b7463b61ffed393efce011f764736f6c634300081c0033",
  "linkReferences": {},
  "deployedLinkReferences": {}
}